S01200004469676974616C46616E2E737265633F
S113000045C0000061C000005FC000005DC000008A
S11300105BC0000059C0000057C0000055C000007C
S113002053C000007BC000004FC000004DC0000062
S11300304BC0000049C0000047C0000045C000009C
S113004044C0000041C0000092C000003DC0000058
S11300503BC0000039C0000037C0000035C00000BC
S113006033C0000031C000002FC000002DC00000CC
S11300702BC0000029C0000027C0000025C00000DC
S113008023C0000021C000001FC0000011241FBEB7
S1130090CFEFD0E1DEBFCDBF12E0A0E0B1E0ECE1F4
S11300A0FAE100E00BBF02C007900D92A232B10743
S11300B0D9F722E0A2E2B2E001C01D92A33CB2074C
S11300C0E1F727D70C940C0D9BCF1F920F920FB61C
S11300D00F9211240BB60F922F933F934F935F937C
S11300E06F937F938F939F93AF93BF93EF93FF93FC
S11300F067D682E882BFFF91EF91BF91AF919F9144
S11301008F917F916F915F914F913F912F910F90BC
S11301100BBE0F900FBE0F901F9018951F920F9259
S11301200FB60F9211240BB60F922F933F934F9358
S11301305F936F937F938F939F93AF93BF93EF934B
S1130140FF935BD393D30AD4FF91EF91BF91AF9107
S11301509F918F917F916F915F914F913F912F91DB
S11301600F900BBE0F900FBE0F901F9018951F920B
S11301700F920FB60F9211240BB60F922F933F9349
S11301804F935F936F937F938F939F93AF93BF939B
S1130190EF93FF9339D7FF91EF91BF91AF919F9167
S11301A08F917F916F915F914F913F912F910F901C
S11301B00BBE0F900FBE0F901F90189512D04FD208
S11301C02FD1F5D6FDD6789480E027D180E019D1DF
S11301D080E011D181E01BC108952FD005D167C4FF
S11301E008950F93FDD600E02BE330E049E350E09F
S11301F06AE370E08BE392E060D401E02BE330E04B
S113020049E350E06AE370E083E392E056D402E00D
S11302102BE330E049E350E06AE370E083E492E0EA
S11302204CD403E02BE330E049E350E06AE370E0B0
S11302308BE292E042D40F9108951F93CF93DF9302
S1130240D7D0182FE7D0DAD002D7882309F461C0B9
S1130250FBD600D7EC01111126C060E571E00E94C5
S1130260180A892B19F480E0D8D01DC069E571E023
S1130270CE010E94180A892B19F481E0CED013C054
S113028062E671E0CE010E94180A892B19F482E01B
S1130290C4D009C06EE671E0CE010E94180A892B11
S11302A011F483E0BAD068E771E0CE010E94180A25
S11302B0892B31F480E0A5D010922A0280E0A7D0E7
S11302C062E871E0CE010E94180A892B39F481E0BA
S11302D098D010922A0280E09AD01BC069E871E09D
S11302E0CE010E94180A892B39F482E08AD0109238
S11302F02A0280E08CD00DC060E971E0CE010E943A
S1130300180A892B31F483E07CD010922A0280E011
S11303107ED0DF91CF911F910895CF937BD0C82FCA
S113032083E392E0E3D3813061F48C2F90E0019673
S113033083709078992324F401978C6F9F6F0196B2
S11303406CD0CF91089554D0882319F0813049F0AE
S11303500895E3DF83E492E0C9D3813049F44BC0CC
S1130360089583E492E0C2D3813011F480E043C065
S11303700895CF93DF934ED0C82F40D0D82F44D0C8
S113038080932A0235D021E0C11101C020E091E020
S1130390813009F090E0922BA9F08BE292E0A6D391
S11303A0813081F48D2F90E00196837090789923A9
S11303B024F401978C6F9F6F019623D010922A0228
S11303C080E025D0DF91CF91089512D017D022D0AC
S11303D08BE392E08BD3813031F480E00CD080E069
S11303E01CD080E00EC00895F0DFADDFC2CF0895C9
S11303F080914B02089580934B02089580914C02A2
S1130400089580934C02089580912A020895809360
S11304102A02089580914D02089580934D02089513
S11304208ED32BC50895DF92EF92FF920F931F9303
S1130430CF93DF93CDB7DEB76E970FB6F894DEBFD8
S11304400FBECDBFE82E162FD3DFD82EE3DFF82E54
S1130450D5DF082F882349F0812F90E024E6E29E1F
S1130460800D911D1124A7D403C080E090E0A3D493
S1130470011113C081E1E7E9F1E0DE011196019079
S11304800D928A95E1F7AE014F5F5F4F60E080E027
S113049037D582E08093230256C080910401181757
S11304A009F451C0109304019091230221E09111A9
S11304B020E081E0943009F080E0822BA9F0909153
S11304C0220281E089278093220281E1E8EAF1E0B7
S11304D0DE01119601900D928A95E1F7AE014F5F0E
S11304E05F4F60E080E00CD58DE0E9EBF1E0DE01E8
S11304F0119601900D928A95E1F7AE014F5F5F4F1F
S11305006091230280E0FCD480912202882371F060
S113051060912302615080E0E9D487EB91E0D1D46B
S1130520809123028F5F809323020DC06091230288
S1130530645F80E0DBD487EB91E0C3D48091230235
S1130540815080932302D11065C081E0F816D1F068
S1130550F81640F092E0F91669F123E0F21609F476
S113056041C06FC08FE0E6ECF1E0DE01119601902E
S11305700D928A95E1F7AE014F5F5F4F60E081E035
S1130580BFD45FC01F921F931F92EF9285ED91E03D
S11305909F938F938E010F5F1F4F1F930F9351D71C
S11305A0A80160E081E0ACD40FB6F894DEBF0FBEC2
S11305B0CDBF47C01F921F931F92EF9288EE91E028
S11305C09F938F938E010F5F1F4F1F930F9339D704
S11305D0A80160E081E094D40FB6F894DEBF0FBEAA
S11305E0CDBF2FC01F921F931F92EF928BEF91E00C
S11305F09F938F938E010F5F1F4F1F930F9321D7EC
S1130600A80160E081E07CD40FB6F894DEBF0FBE91
S1130610CDBF17C01F921F931F92EF928EE092E0FE
S11306209F938F938E010F5F1F4F1F930F9309D7D3
S1130630A80160E081E064D40FB6F894DEBF0FBE79
S1130640CDBF6E960FB6F894DEBF0FBECDBFDF915F
S1130650CF911F910F91FF90EF90DF90089510922A
S113066054021092530210924E02109255021092AC
S1130670500210924F021092520210925102EAE874
S1130680F0E0808183608083808188618083EBE8EF
S1130690F0E080818260808380818068808382B181
S11306A0886082B98EB583608EBD8EB588618EBD3B
S11306B08FB582608FBD8FB580688FBD87B3806230
S11306C087BB0895EBE8F0E0808180688083E0E8F0
S11306D0F0E08BE090E0918380836081718180E021
S11306E090E04FD523E333E343EB5FE3B6D41DD56A
S11306F0709387006093860010928900109288009E
S11307000895EBE8F0E0808180688083E0E8F0E021
S11307108BE090E0918380836081718180E090E040
S113072030D523E333E343E95FE397D4FED47093F6
S113073087006093860010928900109288000895C3
S1130740EBE8F0E0808180688083E0E8F0E08BE013
S113075090E091838083808191819093870080933E
S1130760860010928900109288000895EBE8F0E06A
S113077080818F738083109289001092880008957D
S1130780CF92DF92EF92FF92CF93DF93EBE8F0E00A
S1130790808180688083E0E8F0E08BE090E09183E2
S11307A08083C081D18136D666E070E078D5BC0103
S11307B0665F7F4F072E000C880B990BE4D420E072
S11307C030E040E251E449D46B017C01BE0180E099
S11307D090E0D7D4A701960140D4A7D470938700A2
S11307E0609386001092890010928800DF91CF9167
S11307F0FF90EF90DF90CF90089500DE2091530298
S1130800309154022115310541F490914E02911119
S113081004C090915502992341F1882331F12115A7
S1130820310539F021503109309354022093530299
S1130830089587EE93E0909354028093530280913D
S11308404E02882321F0815080934E0208958BE359
S113085080934E0280915502882321F08150809329
S1130860550208958BE380935502089580914F02B9
S11308709091500201969093500280934F02803DD4
S1130880974040F0B5DD813009F47ADF10925002D0
S113089010924F0208959C0140E050E060E970ED31
S11308A083E090E00FD52150310937BD26BD86B5D0
S11308B097B5969587959BBD8ABD0895CF93DF9391
S11308C0EC01662309F444C08FB580688FBDE091C4
S11308D05602F09157023196F0935702E093560274
S11308E0262F30E088EE93E0B901D9D4E617F70754
S11308F020F18FB58F738FBD809125028F5F99E2B0
S1130900899F912D11249695969549E1949F80197C
S113091011248093250284E195E0B901C0D480912B
S113092056029091570286179707A8F01092570223
S1130930109256021DBC1CBC0EC08091250290E092
S1130940880F991FC80FD91F88819981A4DF03C01C
S11309508FB58F738FBDDF91CF910895CF93DF93C0
S1130960CDB7DEB7E2970FB6F894DEBF0FBECDBFAA
S113097051DD92E3E3E1F1E0DE01119601900D9285
S11309809A95E1F7682FCE01019698DFE2960FB6AB
S1130990F894DEBF0FBECDBFDF91CF9108951F93B2
S11309A0CF93DF9325DD182F29DDC82F2DDDD82F18
S11309B031DD91E0811190E081E0111180E0892323
S11309C041F01092550210924E021092540210926D
S11309D05302D11130C0C13079F028F0C230B1F0E7
S11309E0C330F1F026C01092550210924E021092BC
S11309F05402109253021DC083E08093550210925A
S1130A004E02109254021092530213C085E0809358
S1130A10550210924E02109254021092530209C0D1
S1130A2087E08093550210924E0210925402109265
S1130A30530281E0ECDCDF91CF911F910895CF93B5
S1130A40D7DCDCDCC82FE6DCCC2391F020914E020D
S1130A508091530290915402822B20915502822B53
S1130A60892B31F480E0C7DC80E0D7DC80E0C9DC8E
S1130A70CF910895CF93BCDCC82FCCDCC1110FC03B
S1130A80813041F028F0823039F0833039F007C0EA
S1130A906DDE05C017DE03C034DE01C051DECF9128
S1130AA0089560914E0280915502BDCC089577DF80
S1130AB0C6DFE0DFDBDEF5CF08950F93CF93DF933E
S1130AC0EC01CB01798368835B834A833D832C8368
S1130AD00E8321E02F83402F61E027D26E818C8129
S1130AE09D811AD2DF91CF910F910895CF93DF9317
S1130AF0EC016E818A819B8150D281110CC09F814F
S1130B00913049F48FE39CE90197F1F700C00000AC
S1130B101F8280E011C0882361F08F8181110BC096
S1130B208FE39CE90197F1F700C0000081E08F8317
S1130B3003C082E001C082E0DF91CF91089582B1C9
S1130B40806F82B98FEF8093610008950F931F9394
S1130B50CF93DF93CDB7DEB72B970FB6F894DEBFF4
S1130B600FBECDBF8C018BE0E5E4F1E0DE01119610
S1130B7001900D928A95E1F78091240290E001960C
S1130B8065E070E08CD38093240283B1806F83B9D5
S1130B9080912402823009F486C030F4882359F00D
S1130BA0813009F447C0FCC0833009F4B3C08430F9
S1130BB009F4DEC0F5C0980136952795369527953A
S1130BC036952795A5ECB0E299D3AC0152954295A0
S1130BD04F7045275F7045279A01ADECBCEC8ED36E
S1130BE09695879596958795969587959C01220F5E
S1130BF0331F880F991F880F991F880F991F820F21
S1130C00931F9A01281B390BE1E0F0E0EC0FFD1F64
S1130C10E20FF31F608182E690E0A2D140E064E03D
S1130C2083E290E0A0D18FE99FE00197F1F700C043
S1130C300000B6C098013695279536952795ABE701
S1130C40B4E15CD3AC01569547959A01ADECBCEC8C
S1130C5055D39695879596958795969587959C01F6
S1130C60220F331F880F991F880F991F880F991F10
S1130C70820F931F9A01281B390BE1E0F0E0EC0F7F
S1130C80FD1FE20FF31F608182E690E069D140E02E
S1130C9065E083E290E067D18FE99FE00197F1F787
S1130CA000C000007DC09801ADECBCEC27D3AC01C2
S1130CB05695479556954795569547959A011ED34F
S1130CC09695879596958795969587959C01220F7D
S1130CD0331F880F991F880F991F880F991F820F40
S1130CE0931F9A01281B390BE1E0F0E0EC0FFD1F84
S1130CF0E20FF31F608182E690E032D140E066E0CB
S1130D0083E290E030D18FE99FE00197F1F700C0D2
S1130D10000046C09801ADECBCECF0D296958795E6
S1130D2096958795969587959C01220F331F880F7A
S1130D30991F880F991F880F991F820F931F98017D
S1130D40281B390BE1E0F0E0EC0FFD1FE20FF31F6D
S1130D50608182E690E004D140E067E083E290E0C5
S1130D6002D18FE99FE00197F1F700C0000018C09D
S1130D7080912602882329F06B8582E690E0F0D0EA
S1130D8004C060E082E690E0EBD040E065E083E2FE
S1130D9090E0E9D08FE99FE00197F1F700C00000EF
S1130DA02B960FB6F894DEBF0FBECDBFDF91CF9167
S1130DB01F910F910895909328028093270208951C
S1130DC08091270290912802C1CE089544E060E00A
S1130DD087E390E0AAD046E060E087E390E0A5D006
S1130DE047E060E087E390E0A0D060E084E390E037
S1130DF093C0089540E064E088E390E0B4C00895AF
S1130E0041E064E088E390E0AEC0089540E066E02D
S1130E1088E390E0A8C0089541E067E088E390E0AB
S1130E20A2D08FE99FE00197F1F700C00000089578
S1130E3040E067E088E390E096D08FE99FE0019777
S1130E40F1F700C000000895682F85E390E088C0A2
S1130E500895CF93C82FCEDFD9DFDEDF8C2FF4DFE8
S1130E60E7DFCF910895CF93C82FCADFCFDFD4DF58
S1130E708C2FEADFDDDFCF910895A8DF8FE59AEEAE
S1130E800197F1F700C0000088E3E3DF8FE19EE4FF
S1130E900197F1F700C0000088E3DBDF8FE99FE0F2
S1130EA00197F1F700C0000088E3D3DF88E3D1DFC6
S1130EB088E0CFDF81E0CDDF86E0CBDF8CE0C9CFF7
S1130EC008950F931F93CF93DF938C01C0E0D0E07C
S1130ED002C0C9DF2196F801EC0FFD1F808181114A
S1130EE0F8CFDF91CF911F910F9108956F708170AA
S1130EF090E4899F600D1124862F8058AACF08950D
S1130F00CF93DF93EA01F2DFCE01DBDFDF91CF91F4
S1130F10089554D962D9FECF611104C02FEFFC01AA
S1130F2020830895FC011082089561110CC0FC0116
S1130F30508121E030E002C0220F331F4A95E2F7CE
S1130F40252B20830895FC01508121E030E002C06C
S1130F50220F331F4A95E2F7209525232083089515
S1130F60FC0160830895FC01413059F4208181E043
S1130F7090E002C0880F991F6A95E2F7822B808364
S1130F800895908121E030E002C0220F331F6A955A
S1130F90E2F72095292320830895FC01808190E0C5
S1130FA002C0959587956A95E2F78170089583B795
S1130FB0856083BF87B7816087BF82E882BF089559
S1130FC085B5836085BD87B7806887BF85B588642C
S1130FD085BD89EF83BD08955D9BFECF8CB90895CF
S1130FE08AB188618AB98BB182608BB98AB1806811
S1130FF08AB98FEC89B98FEF81BB85E091E090933A
S1131000C0028093BF0208959CB19A3091F4E0919C
S11310102902AE2FB0E0A85ABD4F9C93EF5FF0E0D9
S1131020E85AFD4F10821092290281E08093BC029D
S1131030089580912902E82FF0E0E85AFD4F90834B
S11310408F5F8093290208951092BC0208958091C5
S1131050BC02089588E592E008950CD0E6C0DED085
S113106040F0D5D030F021F45F3F19F0C7C05111E2
S113107010C1CAC0EBD098F39923C9F35523B1F337
S1131080951B550BBB27AA2762177307840738F0F3
S11310909F5F5F4F220F331F441FAA1FA9F333D052
S11310A00E2E3AF0E0E830D091505040E695001C06
S11310B0CAF729D0FE2F27D0660F771F881FBB1FC2
S11310C0261737074807AB07B0E809F0BB0B802D9C
S11310D0BF01FF2793585F4F2AF09E3F510568F0E8
S11310E08DC0D7C05F3FECF3983EDCF386957795CF
S11310F06795B795F7959F5FC9F7880F911D9695EA
S1131100879597F90895E1E0660F771F881FBB1F45
S1131110621773078407BA0720F0621B730B840BF2
S1131120BA0BEE1F88F7E095089598D088F09F5782
S113113090F0B92F9927B751A0F0D1F0660F771F1F
S1131140881F991F1AF0BA95C9F712C0B13081F0FF
S11311509FD0B1E008959CC0672F782F8827B85F8F
S113116039F0B93FCCF3869577956795B395D9F760
S11311703EF490958095709561957F4F8F4F9F4F6A
S11311800895E89409C097FB3EF490958095709576
S113119061957F4F8F4F9F4F9923A9F0F92F96E9BF
S11311A0BB279395F695879577956795B795F11134
S11311B0F8CFFAF4BB0F11F460FF1BC06F5F7F4FD1
S11311C08F4F9F4F16C0882311F096E911C07723E3
S11311D021F09EE8872F762F05C0662371F096E8EC
S11311E0862F70E060E02AF09A95660F771F881FBB
S11311F0DAF7880F9695879597F9089597F99F6779
S113120080E870E060E008959FEF80EC089500248A
S11312100A941616170618060906089500240A9457
S113122012161306140605060895092E0394000CDD
S113123011F4882352F0BB0F40F4BF2B11F460FF6C
S113124004C06F5F7F4F8F4F9F4F089557FD905895
S1131250440F551F59F05F3F71F04795880F97FB76
S1131260991F61F09F3F79F0879508951216130630
S11312701406551FF2CF4695F1DF08C0161617065F
S11312801806991FF1CF8695710561050894089594
S1131290E894BB2766277727CB0197F9089597FB36
S11312A0072E16F4009406D077FD08D036D007FC3C
S11312B005D03EF4909581959F4F08957095619562
S11312C07F4F0895052E97FB16F400940FD057FD19
S11312D005D037D007FC02D046F408C0509540959D
S11312E0309521953F4F4F4F5F4F089590958095CE
S11312F0709561957F4F8F4F9F4F0895A29FB001C6
S1131300B39FC001A39F700D811D1124911DB29F35
S1131310700D811D1124911D0895AA1BBB1B51E161
S113132007C0AA1FBB1FA617B70710F0A61BB70B51
S1131330881F991F5A95A9F780959095BC01CD01F6
S11313400895A1E21A2EAA1BBB1BFD010DC0AA1F02
S1131350BB1FEE1FFF1FA217B307E407F50720F01A
S1131360A21BB30BE40BF50B661F771F881F991F95
S11313701A9469F760957095809590959B01AC01DE
S1131380BD01CF0108958F929F92AF92BF92CF92E9
S1131390DF92EF92FF92CF93DF93EC016881798122
S11313A08A819B81611571058105910521F464E2AF
S11313B079ED8BE597E02DE133EF41E050E082DFFA
S11313C049015A019B01AC01A7EAB1E415D36B01B1
S11313D07C01ACEEB4EFA50194011AD3DC01CB017E
S11313E08C0D9D1DAE1DBF1DB7FF03C00197A10944
S11313F0B04888839983AA83BB839F77DF91CF9179
S1131400FF90EF90DF90CF90BF90AF909F908F9020
S11314100895B9CF80E091E0B6CFA0E0B0E080932A
S1131420000190930101A0930201B0930301089578
S1131430FB01DC018D91019080190110D9F3990B06
S113144008950F931F93CF93DF93CDB7DEB72E97F5
S11314500FB6F894DEBF0FBECDBF0D891E8986E09E
S11314608C831A8309838FEF9FE79E838D83AE015C
S1131470475E5F4F6F89788DCE01019610D0EF8162
S1131480F885E00FF11F10822E960FB6F894DEBF98
S11314900FBECDBFDF91CF911F910F9108952F9271
S11314A03F924F925F926F927F928F929F92AF92F0
S11314B0BF92CF92DF92EF92FF920F931F93CF933D
S11314C0DF93CDB7DEB72B970FB6F894DEBF0FBE10
S11314D0CDBF6C017B018A01FC01178216828381D6
S11314E081FFBFC1CE0101963C01F6019381F70152
S11314F093FD859193FF81917F01882309F4ADC108
S1131500853239F493FD859193FF81917F01853272
S113151021F4B60190E0D6D1E8CF912C212C312CC6
S1131520FFE1F315D8F08B3279F038F4803279F09A
S11315308332A1F4232D20611DC08D3261F08033EC
S113154069F4232D216016C0832D8260382EE32D8B
S1131550E4603E2E2AC0F32DF8601DC037FC2DC078
S113156020ED280F2A3040F08E32B9F436FC75C1D4
S1131570232D2064322E19C036FE06C08AE0989EC0
S1131580200D1124922E11C0EAE02E9E200D11246C
S1131590222EF32DF0623F2E08C08C3621F4832DC9
S11315A08068382E02C0883641F4F70193FD859196
S11315B093FF81917F018111B3CF982F9F7D955423
S11315C0933028F40C5F1F4F9FE399830DC083363B
S11315D031F0833771F0833509F055C020C0F8012C
S11315E0808189830E5F1F4F88248394912C53013B
S11315F012C02801F2E04F0E511CF801A080B18006
S113160036FE03C0692D70E002C06FEF7FEFC501A5
S11316104ED14C018201F32DFF773F2E15C02801D6
S113162022E0420E511CF801A080B18036FE03C0B6
S1131630692D70E002C06FEF7FEFC5012DD14C0121
S1131640F32DF0683F2E820133FC19C0822D90E007
S113165088169906A0F4B60180E290E033D12A946A
S1131660F5CFF50137FC859137FE81915F01B60115
S113167090E028D121102A9421E0821A9108811443
S1131680910479F7E1C0843611F0893639F5F8010F
S113169037FE07C060817181828193810C5F1F4F87
S11316A008C060817181072E000C880B990B0E5FB6
S11316B01F4FF32DFF763F2E97FF09C0909580951D
S11316C0709561957F4F8F4F9F4FF0683F2E2AE0B2
S11316D030E0A30133D1882E861844C0853731F415
S11316E0232D2F7EB22E2AE030E025C0932D997F42
S11316F0B92E8F36C1F018F4883579F0AEC0803732
S113170019F0883721F0A9C0E92FE061BE2EB4FE9C
S11317100DC0FB2DF460BF2E09C034FE0AC0292F72
S11317202660B22E06C028E030E005C020E130E09B
S113173002C020E132E0F801B7FE07C06081718188
S1131740828193810C5F1F4F06C06081718180E0AC
S113175090E00E5F1F4FA301F1D0882E8618FB2D59
S1131760FF773F2E36FE0DC0232D2E7FA22E891427
S113177058F434FE0BC032FC09C0832D8E7EA82E93
S113178005C0B82CA32C03C0B82C01C0B92CA4FEEE
S11317900FC0FE01E80DF11D8081803321F49A2DE4
S11317A0997EA92E09C0A2FE06C0B394B39404C0C6
S11317B08A2D867809F0B394A3FC10C0A0FE06C05D
S11317C0B21480F4280C922C9B180DC0B21458F457
S11317D0B60180E290E076D0B394F8CFB21418F456
S11317E02B1802C0982C212CA4FE0FC0B60180E354
S11317F090E068D0A2FE16C0A1FC03C088E790E088
S113180002C088E590E0B6010CC08A2D867851F0BC
S1131810A1FE02C08BE201C080E2A7FC8DE2B6010A
S113182090E050D0891430F4B60180E390E04AD0BF
S11318309A94F8CF8A94F301E80DF11D8081B601E2
S113184090E040D08110F6CF222009F44ECEB601AC
S113185080E290E037D02A94F7CFF6018681978111
S113186002C08FEF9FEF2B960FB6F894DEBF0FBE2A
S1131870CDBFDF91CF911F910F91FF90EF90DF903B
S1131880CF90BF90AF909F908F907F906F905F901C
S11318904F903F902F900895FC0105906150704047
S11318A00110D8F7809590958E0F9F1F0895FC0125
S11318B06150704001900110D8F7809590958E0F7B
S11318C09F1F08950F931F93CF93DF93FB012381F1
S11318D021FD03C08FEF9FEF2CC022FF16C046816D
S11318E05781248135814217530744F4A081B18183
S11318F09D012F5F3F4F318320838C932681378155
S11319002F5F3F4F3783268314C08B01EC01FB010B
S11319100084F185E02D0995892BE1F6D80116960E
S11319208D919C911797019617969C938E93169779
S1131930CE01DF91CF911F910F910895FA01AA274B
S1131940283051F1203181F1E8946F936E7F6E5FFE
S11319507F4F8F4F9F4FAF4FB1E03ED0B4E03CD0AC
S1131960670F781F891F9A1FA11D680F791F8A1F8F
S1131970911DA11D6A0F711D811D911DA11D20D0F6
S113198009F468943F912AE0269F11243019305DB0
S11319903193DEF6CF010895462F4770405D4193A1
S11319A0B3E00FD0C9F7F6CF462F4F70405D4A33EE
S11319B018F0495D31FD4052419302D0A9F7EACFB6
S11319C0B4E0A6959795879577956795BA95C9F7E5
S11319D000976105710508959B01AC010A2E0694D8
S11319E05795479537952795BA95C9F7620F731F91
S11319F0841F951FA01D089581DCA59F900DB49FA1
S1131A00900DA49F800D911D11240895B7FFF4CF6C
S10F1A10F3DF821B930B0895F894FFCFC2
S1131A1C01000000FF0000000200000000EC0700C1
S1131A2C00000088018801B80188010B02EE0188CE
S1131A3C018801B80188014B020B02880188010F4F
S1131A4C0393020B02EE01B801BA02BA0293020B21
S1131A5C024B020B023F065B4F666D7D077F6F8066
S1131A6C66616E5F6F66660A0066616E5F6C6F77A7
S1131A7C0A0066616E5F6D656469756D0A00666166
S1131A8C6E5F686967680A0074696D655F6F666686
S1131A9C0A0074696D65330A0074696D65350A0052
S1131AAC74696D65370A0020204469676974616C38
S1131ABC2046616E21202000202020202020202080
S1131ACC2020202020202020004469676974616C48
S1131ADC2046616E2100202053544F50202020308A
S1131AEC303A30300020204C4F5720202020253015
S1131AFC32643A253032640020204D454449554D1A
S1131B0C20253032643A253032640020204849477D
S1131B1C48202020253032643A25303264002020BD
S1131B2C4155544F202020253032643A25303264FC
S1051B3C0000A3
S9030000FC
